:020000040000FA
:1000000018F09FE518F09FE518F09FE518F09FE5C0
:1000100018F09FE50000A0E1F0FF1FE518F09FE554
:1000200058000000400000004400000048000000AC
:100030004C000000000000005000000054000000D0
:10004000FEFFFFEAFEFFFFEAFEFFFFEAFEFFFFEA18
:10005000FEFFFFEAFEFFFFEAA0009FE5AA10A0E373
:100060005520A0E32330A0E3043080E50130A0E375
:10007000003080E50C1080E50C2080E5083090E52C
:10008000013B13E2FCFFFF0A0330A0E3003080E5F0
:100090000C1080E50C2080E564009FE50410A0E3CF
:1000A000041080E50210A0E3001080E554009FE5F5
:1000B000DBF021E300D0A0E1000040E2D7F021E333
:1000C00000D0A0E1000040E2D1F021E300D0A0E1A7
:1000D000000040E2D2F021E300D0A0E1800040E245
:1000E000D3F021E300D0A0E1080040E210F021E3CA
:1000F00000D0A0E101AB4DE20C009FE510FF2FE125
:1001000080C01FE000C01FE0080600401001000092
:10011000000000EB330000EB2C008FE2000C90E8B5
:1001200000A08AE000B08BE001704AE20B005AE1C7
:100130000000001A2B0000EB0F00BAE818E04FE2B5
:10014000010013E303F0471013FF2FE1E01000005C
:1001500000110000102052E27800B0287800A12899
:10016000FBFFFF8A822EB0E13000B0283000A128CA
:1001700000409045004081451EFF2FE10030B0E374
:100180000040B0E30050B0E30060B0E3102052E262
:100190007800A128FCFFFF8A822EB0E13000A12860
:1001A000003081451EFF2FE101C08FE21CFF2FE1CF
:1001B0001FB501F027F80098019900F0B0FD00F09C
:1001C00041FA059886460FBC009C02B070470000BB
:1001D00001C08FE21CFF2FE130B4754600F0A0FA99
:1001E000AE4630BC70470000830100EB0210A0E176
:1001F000ECFFFFEB1CC09FE50FC08CE001001CE38F
:100200000DE08F120FE0A0011CFF2FE101C08FE273
:100210001CFF2FE100F01AFDE80200007847C046FD
:1002200003002DE9E9FFFFEB0300BDE88F0300EBBE
:100230000C009FE50C109FE504209FE508309FE52A
:100240001EFF2FE18001004080050040800100403A
:1002500004402DE50020A0E10030A0E3010052E3BE
:100260000600000A020052E30900000A030052E3FC
:100270000C00000A040052E31400001A0E0000EA09
:100280000000A0E101C8A0E370419FE51CC084E527
:10029000130000EA0000A0E102C8A0E35C419FE572
:1002A0001CC084E50E0000EA0000A0E101C7A0E345
:1002B00048419FE51CC084E5090000EA0000A0E178
:1002C00002C7A0E334419FE51CC084E5040000EAB6
:1002D0000000A0E101C8A0E320419FE51CC084E527
:1002E0000000A0E10000A0E101C6A0E30C419FE5F1
:1002F0000CC084E50000A0E3140000EA803001E2B5
:10030000000053E30700001A02C8A0E3EC409FE599
:100310000CC084E502C7A0E30CC084E502C8A0E3DA
:1003200004C084E5060000EA02C8A0E3CC409FE5D3
:100330000CC084E502C7A0E304C084E502C8A0E3C2
:1003400004C084E581CCA0E12C1CA0E1010080E286
:10035000080050E3E8FFFF3A01C6A0E39C409FE598
:1003600004C084E50CC084E504409DE41EFF2FE139
:10037000000000EA010040E2000050E3FCFFFF1A29
:100380001EFF2FE1F0402DE90040A0E10060A0E356
:100390000070A0E30050A0E3140000EA4462A0E172
:1003A0005C009FE50610D0E70300A0E3A7FFFFEB8A
:1003B00050009FE5EDFFFFEB0107A0E33C109FE538
:1003C000140081E50F7004E234009FE50710D0E7C8
:1003D0000400A0E39DFFFFEB28009FE5E3FFFFEB98
:1003E0000207A0E314109FE5140081E5015085E2A7
:1003F000FA0F55E3E8FFFF3AF040BDE81EFF2FE19A
:10040000008002E000000040102700005C019FE532
:10041000000090E50F00C0E3050080E34C119FE56C
:10042000000081E58300A0E30015C1E10C00C1E5F7
:100430004E00A0E30000C1E50000A0E30400C1E518
:100440000300A0E30C00C1E58100A0E30800C1E5C2
:100450000100A0E30400C1E51EFF2FE13F502DE99C
:100460000C019FE50800D0E50F0000E2040050E316
:100470000200001A0100A0E3F8109FE50000C1E5AA
:100480000040A0E3070000EAE4009FE50000D0E59B
:10049000E4109FE50400C1E70200A0E3B3FFFFEB17
:1004A000010084E2FF4000E20F0054E3F5FFFFBAD1
:1004B0000000A0E3D00F00E53F50BDE804F05EE28D
:1004C0000000A0E3F40F00E52600A0E30010A0E385
:1004D000000E01E580004FE2000F01E54000A0E3BF
:1004E000F00F01E51EFF2FE10000A0E37C109FE567
:1004F000000081E5040081E580009FE54013C1E133
:10050000000081E5080081E50F08A0E3100081E507
:10051000180081E5BCFFFFEB130000EA54009FE5E3
:100520000000D0E5010050E30F00001A0000A0E336
:1005300040109FE50000C1E53C009FE50000D0E5CC
:10054000100050E30600001A2C009FE50100D0E5E2
:10055000110050E30200001A24008FE2140000EBA7
:10056000010000EA28008FE2110000EBEAFFFFEA39
:1005700000C002E000C000E0100000402000004089
:1005800000001A400AC0B4C0B2C0B4C0B2C0B4C007
:10059000B20A00000AC0B4C0B2C0B4C0B2C0B4C095
:1005A000B27965796579657965796579796579650E
:1005B000790A000001C08FE21CFF2FE10FB405494A
:1005C00010B503AA029800F00BF810BC08BC04B0E8
:1005D00018470000800000407047704770470000D7
:1005E000094B70B50C007B4400F015F805002000A5
:1005F00000F024F8002804D00020C04370BC08BCE0
:1006000018472800FAE70000F70B000001694A1CB0
:1006100002610878704700B58FB002910021059102
:10062000054901937944039111000490684600F054
:100630003FF90FB008BC1847E5FFFFFFC0688021F5
:100640000840704710B54548502100F00DFB444864
:10065000502100F009FB4348502100F005FB4248BF
:100660003E493F4B424A0160404803603D481060AC
:100670005A1CCA64411CD9640121C1643E48374AEE
:100680003CA1784400F044FA002804D13A48784468
:100690000C3800F0E1FA3A48314A38A1784400F0C9
:1006A00037FA002804D1364878440C3800F0D4FAE0
:1006B00034482C4A31A1784400F02AFA002804D1A9
:1006C000304878440C3800F0C7FA40232348DC0057
:1006D0002200002100F0F4F9002804D026487844D4
:1006E0005C3800F0B9FA1E4840232200002100F0D7
:1006F000E7F9002804D0224878445C3800F0ACFACE
:10070000184810232200002100F0DAF9002804D054
:100710001C4878445C3800F09FFA10BC08BC1847AD
:10072000104870B5C06C44080C48640000F066FACC
:100730000B4800F063FA0B4800F060FA09E0E06C47
:10074000450820006D0000F059FA200000F086F8FE
:100750002C00002CF3D170BC08BC184730000040BE
:1007600080000040D000004014000040180000400D
:100770001C000040720000009A0B0000770000008F
:10078000840B00006E0B00000EB56A4603C200F039
:100790004DFC029069460120ABDF03B008BC18474E
:1007A00008B5694600900220ABDF01B0F6E71FB53F
:1007B0006C4607C469460520ABDF04B010BC08BC1A
:1007C00018471FB56C460FC469460620ABDFF4E737
:1007D00008B5694600900920ABDFE6E71CB56A461C
:1007E00003C269460A20ABDF1CBC08BC184770472F
:1007F00008B5694600900C20ABDFD6E70E50A0E1AB
:100800002E0100EB05E0A0E10050B0E10D10A0E1E9
:100810000A30A0E10700C0E300D0A0E160D08DE283
:1008200020402DE981FEFFEB2040BDE80060A0E301
:100830000070A0E30080A0E300B0A0E30710C1E3D4
:1008400005C0A0E1C009ACE8C009ACE8C009ACE84B
:10085000C009ACE801D0A0E11EFF2FE170B5040093
:10086000051F00F035FA0068002C1AD0446801E03A
:1008700020006468002C01D0AC42F9D301680A184A
:10088000AA4204D12A6889180500016000E0456089
:1008900028684119A14207D1616869602168401840
:1008A000286070BC08BC18476C6070BC08BC184756
:1008B000F8B506004768806800240090F56803E0FA
:1008C000009900F08CFC641C300000F087FC0028CC
:1008D000F6D12000F8BC08BC18470000F8B50500A8
:1008E000C8680C000521C904884301218905084313
:1008F000E060800602D5200000F050FB6E49E06801
:100900000140022903D0200000F0EEFAB6E00521F4
:10091000012249030140D20391420FD1C00306D501
:100920006168E06A884200D80800606006E02069DB
:10093000E06260606069FFF75BFFA061A1682E065E
:100940000022360E00290EDAE06883050BD4C94375
:10095000A1600921226049030843E0606068411CEE
:1009600061600670A5E0E068012149030843E0608A
:10097000002020602069002829D16069FFF728FF46
:100980000125ED02002813D0E0688105890F07D00A
:10099000E06900F0F3F920616060E068284315E049
:1009A00021002431216161600121E16189020CE0B3
:1009B000E06900F0E3F920616060E0682843E060EE
:1009C0008105890F03D1FF2101310843E060E2680E
:1009D0003A4F2569D00521D56168E06A884200D880
:1009E0000800411B05D02200280000F087FA0028EB
:1009F00044D1E068010204D5E56200206560A06092
:100A000054E0691CE1626160E1693843491EA160FC
:100A1000E06030002E70F8BC08BC1847100201D509
:100A20003A400AE060680122411C61600670E0689B
:100A300038430A2EE06000D00022E16A60688142FB
:100A400001D90B0000E00300E7685B1B7F0504D4BD
:100A5000E7699F4201DD002A1ED0814200D80100D3
:100A60000F1A0020E5626560002BA06009DD2200FE
:100A70001900280000F042FA002802D00020C043EC
:100A8000C9E7002F08D0A069E5626560C01BA061BE
:100A9000E06810210843E060E068000209D5616861
:100AA000A069E562491B40186560A0610120C04350
:100AB000B1E73000AFE70000821000000000010045
:100AC00070B4C468A50713D0650211D4D51FF93DD1
:100AD0000AD0FF3D013D07D0FF3DFF3D023D07D15C
:100AE00001002431012306E0084E5D1EB54202D309
:100AF000012070BC70470161C36141600F21090290
:100B00008C431443C4600020F3E70000FFFFFF00A4
:100B1000F7B50C001600100000F070F82078611C8A
:100B200061280AD0722802D077283BD102E0012543
:100B3000002404E00225042401E02E4D08240222B2
:100B4000032301270878491C2B2806D0622807D0E8
:100B50002039C87F742807D008E01D431443F1E70B
:100B6000042005433C43EDE7102004430098210096
:100B7000FFF70AFE411C15D000213161716001218F
:100B8000F5604902F1617061200704D5022200215D
:100B9000300000F02DF9F06C3843F0643000FEBCFA
:100BA00008BC18470020FAE7F8B50500124C0E0003
:100BB000E06CC10704D0410804D044086400F7E7A2
:100BC00022000FE0502000F0D9F80700E06C79080F
:100BD0000122490011430843E0645021380000F02D
:100BE00043F83A0031002800FFF792FFF8BC08BC38
:100BF000184700000280000030000040FEB50400ED
:100C00001030114F41C80090E56800200190A807FE
:100C100007D0200000F09AF93000FFF7C1FD00284E
:100C200003DA3800FEBC08BC1847280502D5009836
:100C3000FFF714FE4821200000F016F8E06C400891
:100C40004000E0640198EDE7FFFFFFFF0400C046AD
:100C5000C0462000FFF7E2FA10B500F0CBF900F033
:100C6000C1F910BC08BC18477847C0460020A0E373
:100C700000402DE90230A0E102C0A0E102E0A0E1C5
:100C8000201051E20C50A0280C50A0282010512216
:100C9000FBFFFF2A011EB0E10C50A0280C00A04869
:100CA0000040BDE80111B0E1042080241EFF2F01A7
:100CB000B220C040010111E30120C0141EFF2FE14A
:100CC00000009FE51EFF2FE1200100401EFF2FE1E5
:100CD0007847C04604009FE51EFF2FE11EFF2FE16D
:100CE00028010040704770477047704738B50400CE
:100CF0000A0069460020C046C046002805D0020010
:100D00000099200000F0CDF9012038BC08BC18473C
:100D100010B5012000F020FA10BC08BC1847F8B547
:100D2000C046C04605000C0000201020C04606004A
:100D30002818A0420DD9694632000020C046C0469E
:100D4000070001D100F008FA0098A04200D0050089
:100D5000C419FFF7BDFFF61D07000560F008C000CD
:100D60004619280000F096F9B44204D03868A21B56
:100D7000310000F096F9F8BC08BC1847F8B5070038
:100D8000FFF7A6FF05683E1D082E00D20826F61DB7
:100D9000F408E400BC4203D8F8BC002008BC1847A3
:100DA00068682A0000281AD00168A14213D30B00FA
:100DB000210008318B4208D3436801194B60036856
:100DC0001B1B0B605160046001E041685160F8BC7E
:100DD000001D08BC1847020040680028E4D121002B
:100DE0002800FFF783FF0028DAD1F8BC08BC1847B9
:100DF000F8B504004769C0680D001600800732D0BE
:100E00003800FFF7E5FC00282DD132001026002A1B
:100E100027D0012A02D0022A25D104E0200000F0C8
:100E20005CF945191DE03800FFF7E2FCE168314349
:100E30000028E16006DA200000F056F80120F8BC36
:100E400008BC1847C9030BD56268E16A914200D813
:100E50001100A26989182269891A814200DD0800FF
:100E60002D18002D01DA0220E9E7E16A6068E268E6
:100E7000814206D29103E06203D5012149048A43ED
:100E80003243A669AE4211DCE16A814201D90B000E
:100E900000E003009F192369FF1AAF4206DD81427B
:100EA00001D90F0000E007009F4206D12020024335
:100EB0000020A060A56220600DE0AD1BE669AE1BBE
:100EC0008142A66000D90800C01A281A206058196B
:100ED000606020208243034802400020E2604034EA
:100EE0002071ACE7BFCFD7FFC168802211439203C6
:100EF0009143C1600021816001607047F7B50E0029
:100F000014003648D5685769054209D0A1693800F0
:100F1000FFF764FC002811DB3048C0430540E56062
:100F200000992B0032003800FFF741FC4200A16914
:100F30005208B21A89180028A16104D02000FFF7D6
:100F4000D3FF0020C043FEBC08BC184770B50400A6
:100F50000569C06A6168884200D80800E168052216
:100F6000D2049143E160C90316D5A8420BD0411BBE
:100F700022002800FFF7C2FF002804D00020C04351
:100F800070BC08BC1847E56200206560A060E0689E
:100F9000012109048843E0600020F1E710B5040056
:100FA000C06820218843E060A16AA06988420ED011
:100FB0002000FFF7CBFFE0680321090388431021DD
:100FC0000843E060A06AA0612069E06260600449B3
:100FD000E0680840E06010BC08BC18471000020040
:100FE000BFBFFFFF10B5002801D000F045F810BCCE
:100FF00008BC1847010010B503A000F091F810BC20
:10100000012008BC18470000534947525452454438
:101010003A2052656469726563743A2063616E2791
:1010200074206F70656E3A200000000030B4441CDC
:1010300003E00178401C00290ED08107F9D10B4B49
:10104000DD0104C8D11A91432940FAD0001B0A06D9
:1010500004D0C01E30BC7047001BFBE70A0401D05F
:10106000801EF7E70902F5D0401EF3E701010101F8
:1010700001C08FE21CFF2FE101491820ABDFFEE722
:101080002600020004009FE51EFF2FE11EFF2FE156
:101090002401004000210160416080607047102001
:1010A000704710B50300406801E003004068002865
:1010B00001D08842F9D31868C3188B4206D0C81CE7
:1010C000C008C000001D411A521A0100081D0A6024
:1010D000FFF7C4FB10BC08BC184710B5C26801007C
:1010E000900703D0900609D5886A0CE000F044F818
:1010F00001210160881E10BC08BC18478B69486834
:10110000C0180B69C01A40310B79002B02D0497905
:10111000401AF0E71103EED50028ECDD401EEAE7A7
:1011200070B505000C000A2000E06D1C00F01CF8F2
:10113000002D06D028780028F7D102E0641C00F0CA
:1011400013F8002C02D020780028F7D10A2000F0F4
:101150000BF870BC08BC184710B500F017F8FFF783
:1011600041FF10BC08BC184708B569460870032049
:10117000ABDF01B008BC18477847C04604009FE5C4
:101180001EFF2FE11EFF2FE120010040002110B5BE
:10119000012800D103A109A0FFF7C2FF10BC012064
:1011A00008BC18473A2048656170206D656D6F7204
:1011B0007920636F72727570746564005349475289
:1011C000544D454D3A204F7574206F662068656117
:1011D00070206D656D6F72790000000028473847F8
:1011E00010B58A68002A04DCFFF778FB10BC08BC45
:1011F0001847521E8A604A680006000E531C4B6056
:101200001070F3E77847C04610402DE99CFFFFEBD4
:101210000010A0E3001080E51040BDE81EFF2FE1A4
:101220003A7474003A7474003A7474004C120000FA
:101230000000004020000000540100006C1200007B
:1012400020000040E80500007C010000C0F9A4B0C7
:10125000999282F880908883C6A1868E0000000053
:0C12600000000000000000000000000082
:0400000500000110E6
:00000001FF
